{
  "transactions": [
    {
      "hash": "0xf6827728763fb35d413b95d2375f0fc50681ad791dc054b29d7f145dd21af542",
      "transactionType": "CALL",
      "contractName": null,
      "contractAddress": "0x830d6925175ad3e5368189c7592cad3c805df60d",
      "function": "changeBlockDelay4568468541621584(uint8)",
      "arguments": [
        "200"
      ],
      "transaction": {
        "from": "0x537753bd5e53467f21f28746a3ffcb54e1ea2bee",
        "to": "0x830d6925175ad3e5368189c7592cad3c805df60d",
        "gas": "0x901f",
        "value": "0x0",
        "input": "0x2f1cb29600000000000000000000000000000000000000000000000000000000000000c8",
        "nonce": "0x4",
        "chainId": "0x1"
      },
      "additionalContracts": [],
      "isFixedGasLimit": false
    }
  ],
  "receipts": [
    {
      "status": "0x1",
      "cumulativeGasUsed": "0xaee0e4",
      "logs": [],
      "logsBloom": "0x00000000000000000000000000000000000000000000000000000000000000000000000000000000000000000000000000000000000000000000000000000000000000000000000000000000000000000000000000000000000000000000000000000000000000000000000000000000000000000000000000000000000000000000000000000000000000000000000000000000000000000000000000000000000000000000000000000000000000000000000000000000000000000000000000000000000000000000000000000000000000000000000000000000000000000000000000000000000000000000000000000000000000000000000000000000",
      "type": "0x2",
      "transactionHash": "0xf6827728763fb35d413b95d2375f0fc50681ad791dc054b29d7f145dd21af542",
      "transactionIndex": "0x5d",
      "blockHash": "0x62c97694f475476997b971ed9fce15de10cedfcf57200e9b5a00af1b4671d148",
      "blockNumber": "0x139c3be",
      "gasUsed": "0x6858",
      "effectiveGasPrice": "0xea7b3f9f",
      "from": "0x537753bd5e53467f21f28746a3ffcb54e1ea2bee",
      "to": "0x830d6925175ad3e5368189c7592cad3c805df60d",
      "contractAddress": null
    }
  ],
  "libraries": [],
  "pending": [],
  "returns": {},
  "timestamp": 1724072978,
  "chain": 1,
  "commit": "406bfa2"
}