{
  "transactions": [
    {
      "hash": "0x809815a0b21a4799f6d8fa9910b4f0d67ef8e5ef6092be4fc7fbbb5215326aff",
      "transactionType": "CALL",
      "contractName": null,
      "contractAddress": "0x18c20415a20f6435a50a2263dc5dbba7cf3b29f3",
      "function": "approve(address,uint256)",
      "arguments": [
        "0x7a250d5630B4cF539739dF2C5dAcb4c659F2488D",
        "115792089237316195423570985008687907853269984665640564039457584007913129639935"
      ],
      "transaction": {
        "from": "0x5521e6dd81cb8820f44e9fb635d4099149bdc5ed",
        "to": "0x18c20415a20f6435a50a2263dc5dbba7cf3b29f3",
        "gas": "0x108ff",
        "value": "0x0",
        "input": "0x095ea7b30000000000000000000000007a250d5630b4cf539739df2c5dacb4c659f2488dffffffffffffffffffffffffffffffffffffffffffffffffffffffffffffffff",
        "nonce": "0x17",
        "chainId": "0x1"
      },
      "additionalContracts": [],
      "isFixedGasLimit": false
    },
    {
      "hash": "0x668c7945fce90c61e08f7d3e84e0bf1a9a70d62c5981cdeca7ffa67b7ae411c2",
      "transactionType": "CALL",
      "contractName": null,
      "contractAddress": "0x7a250d5630b4cf539739df2c5dacb4c659f2488d",
      "function": "removeLiquidityETH(address,uint256,uint256,uint256,address,uint256)",
      "arguments": [
        "0x66B55B5DaAA22e2023df596b061600a31ee3477D",
        "223606797749978969639917",
        "0",
        "0",
        "0x5521E6DD81cB8820F44E9Fb635d4099149BDC5eD",
        "1724406411"
      ],
      "transaction": {
        "from": "0x5521e6dd81cb8820f44e9fb635d4099149bdc5ed",
        "to": "0x7a250d5630b4cf539739df2c5dacb4c659f2488d",
        "gas": "0x44580",
        "value": "0x0",
        "input": "0x02751cec00000000000000000000000066b55b5daaa22e2023df596b061600a31ee3477d000000000000000000000000000000000000000000002f59bfb10a0440278bed000000000000000000000000000000000000000000000000000000000000000000000000000000000000000000000000000000000000000000000000000000000000000000000000000000005521e6dd81cb8820f44e9fb635d4099149bdc5ed0000000000000000000000000000000000000000000000000000000066c85a8b",
        "nonce": "0x18",
        "chainId": "0x1"
      },
      "additionalContracts": [],
      "isFixedGasLimit": false
    },
    {
      "hash": "0xaa3402d662459040c65afc784b26cfe54dda9fb73bb0fd59626f291dc951d76b",
      "transactionType": "CALL",
      "contractName": null,
      "contractAddress": "0xfeb4b5348c80418ac2fcc375837587c7ce0145d3",
      "function": "changeAllowAll14684684165135468465(bool)",
      "arguments": [
        "true"
      ],
      "transaction": {
        "from": "0xeda0645e60860854f5564a34c5eaab28822bac5b",
        "to": "0xfeb4b5348c80418ac2fcc375837587c7ce0145d3",
        "gas": "0x9069",
        "value": "0x0",
        "input": "0x7540bb150000000000000000000000000000000000000000000000000000000000000001",
        "nonce": "0x16",
        "chainId": "0x1"
      },
      "additionalContracts": [],
      "isFixedGasLimit": false
    }
  ],
  "receipts": [
    {
      "status": "0x1",
      "cumulativeGasUsed": "0x1c8ed87",
      "logs": [
        {
          "address": "0x18c20415a20f6435a50a2263dc5dbba7cf3b29f3",
          "topics": [
            "0x8c5be1e5ebec7d5bd14f71427d1e84f3dd0314c0f7b2291e5b200ac8c7c3b925",
            "0x0000000000000000000000005521e6dd81cb8820f44e9fb635d4099149bdc5ed",
            "0x0000000000000000000000007a250d5630b4cf539739df2c5dacb4c659f2488d"
          ],
          "data": "0xffffffffffffffffffffffffffffffffffffffffffffffffffffffffffffffff",
          "blockHash": "0xd57881ed4ae47122b3c26eeef4a58bd90715d4d66b3fa4a2aea7dde8f73f53fb",
          "blockNumber": "0x13a2f9c",
          "transactionHash": "0x809815a0b21a4799f6d8fa9910b4f0d67ef8e5ef6092be4fc7fbbb5215326aff",
          "transactionIndex": "0x16c",
          "logIndex": "0x2aa",
          "removed": false
        }
      ],
      "logsBloom": "0x00000000000000000000000000000000010000000000000008010000000000000000000000000000000000000000000000000000000000000000000000200000000000000000000000000000000000000000000000000100000000000800000000000000000000000000000000000000000000000000000000000000000000000800000000000000004000000000000000000000000000000000000000000000020000000001000000000000000000000000000000000000000000000000000000000000000000000000000000000000000000000000000000000000000020000010000000000000000000000000000000000000000000000000000000000000",
      "type": "0x2",
      "transactionHash": "0x809815a0b21a4799f6d8fa9910b4f0d67ef8e5ef6092be4fc7fbbb5215326aff",
      "transactionIndex": "0x16c",
      "blockHash": "0xd57881ed4ae47122b3c26eeef4a58bd90715d4d66b3fa4a2aea7dde8f73f53fb",
      "blockNumber": "0x13a2f9c",
      "gasUsed": "0xb532",
      "effectiveGasPrice": "0x34debed2",
      "from": "0x5521e6dd81cb8820f44e9fb635d4099149bdc5ed",
      "to": "0x18c20415a20f6435a50a2263dc5dbba7cf3b29f3",
      "contractAddress": null
    },
    {
      "status": "0x1",
      "cumulativeGasUsed": "0x1348616",
      "logs": [
        {
          "address": "0x18c20415a20f6435a50a2263dc5dbba7cf3b29f3",
          "topics": [
            "0xddf252ad1be2c89b69c2b068fc378daa952ba7f163c4a11628f55a4df523b3ef",
            "0x0000000000000000000000005521e6dd81cb8820f44e9fb635d4099149bdc5ed",
            "0x00000000000000000000000018c20415a20f6435a50a2263dc5dbba7cf3b29f3"
          ],
          "data": "0x000000000000000000000000000000000000000000002f59bfb10a0440278bed",
          "blockHash": "0xaa4c54bafa7d09241920ca1f422945f467a1de314b34588f18d7f8f5dcc0bd0f",
          "blockNumber": "0x13a2f9f",
          "transactionHash": "0x668c7945fce90c61e08f7d3e84e0bf1a9a70d62c5981cdeca7ffa67b7ae411c2",
          "transactionIndex": "0xcc",
          "logIndex": "0x253",
          "removed": false
        },
        {
          "address": "0x18c20415a20f6435a50a2263dc5dbba7cf3b29f3",
          "topics": [
            "0xddf252ad1be2c89b69c2b068fc378daa952ba7f163c4a11628f55a4df523b3ef",
            "0x00000000000000000000000018c20415a20f6435a50a2263dc5dbba7cf3b29f3",
            "0x0000000000000000000000000000000000000000000000000000000000000000"
          ],
          "data": "0x000000000000000000000000000000000000000000002f59bfb10a0440278bed",
          "blockHash": "0xaa4c54bafa7d09241920ca1f422945f467a1de314b34588f18d7f8f5dcc0bd0f",
          "blockNumber": "0x13a2f9f",
          "transactionHash": "0x668c7945fce90c61e08f7d3e84e0bf1a9a70d62c5981cdeca7ffa67b7ae411c2",
          "transactionIndex": "0xcc",
          "logIndex": "0x254",
          "removed": false
        },
        {
          "address": "0x66b55b5daaa22e2023df596b061600a31ee3477d",
          "topics": [
            "0xddf252ad1be2c89b69c2b068fc378daa952ba7f163c4a11628f55a4df523b3ef",
            "0x00000000000000000000000018c20415a20f6435a50a2263dc5dbba7cf3b29f3",
            "0x0000000000000000000000007a250d5630b4cf539739df2c5dacb4c659f2488d"
          ],
          "data": "0x000000000000000000000000000000000000000140fd938c99dddd2f907c359d",
          "blockHash": "0xaa4c54bafa7d09241920ca1f422945f467a1de314b34588f18d7f8f5dcc0bd0f",
          "blockNumber": "0x13a2f9f",
          "transactionHash": "0x668c7945fce90c61e08f7d3e84e0bf1a9a70d62c5981cdeca7ffa67b7ae411c2",
          "transactionIndex": "0xcc",
          "logIndex": "0x255",
          "removed": false
        },
        {
          "address": "0xc02aaa39b223fe8d0a0e5c4f27ead9083c756cc2",
          "topics": [
            "0xddf252ad1be2c89b69c2b068fc378daa952ba7f163c4a11628f55a4df523b3ef",
            "0x00000000000000000000000018c20415a20f6435a50a2263dc5dbba7cf3b29f3",
            "0x0000000000000000000000007a250d5630b4cf539739df2c5dacb4c659f2488d"
          ],
          "data": "0x00000000000000000000000000000000000000000000000006fc299a0e48afff",
          "blockHash": "0xaa4c54bafa7d09241920ca1f422945f467a1de314b34588f18d7f8f5dcc0bd0f",
          "blockNumber": "0x13a2f9f",
          "transactionHash": "0x668c7945fce90c61e08f7d3e84e0bf1a9a70d62c5981cdeca7ffa67b7ae411c2",
          "transactionIndex": "0xcc",
          "logIndex": "0x256",
          "removed": false
        },
        {
          "address": "0x18c20415a20f6435a50a2263dc5dbba7cf3b29f3",
          "topics": [
            "0x1c411e9a96e071241c2f21f7726b17ae89e3cab4c78be50e062b03a9fffbbad1"
          ],
          "data": "0x000000000000000000000000000000000000000000000000000000001a7b05190000000000000000000000000000000000000000000000000000000000000001",
          "blockHash": "0xaa4c54bafa7d09241920ca1f422945f467a1de314b34588f18d7f8f5dcc0bd0f",
          "blockNumber": "0x13a2f9f",
          "transactionHash": "0x668c7945fce90c61e08f7d3e84e0bf1a9a70d62c5981cdeca7ffa67b7ae411c2",
          "transactionIndex": "0xcc",
          "logIndex": "0x257",
          "removed": false
        },
        {
          "address": "0x18c20415a20f6435a50a2263dc5dbba7cf3b29f3",
          "topics": [
            "0xdccd412f0b1252819cb1fd330b93224ca42612892bb3f4f789976e6d81936496",
            "0x0000000000000000000000007a250d5630b4cf539739df2c5dacb4c659f2488d",
            "0x0000000000000000000000007a250d5630b4cf539739df2c5dacb4c659f2488d"
          ],
          "data": "0x000000000000000000000000000000000000000140fd938c99dddd2f907c359d00000000000000000000000000000000000000000000000006fc299a0e48afff",
          "blockHash": "0xaa4c54bafa7d09241920ca1f422945f467a1de314b34588f18d7f8f5dcc0bd0f",
          "blockNumber": "0x13a2f9f",
          "transactionHash": "0x668c7945fce90c61e08f7d3e84e0bf1a9a70d62c5981cdeca7ffa67b7ae411c2",
          "transactionIndex": "0xcc",
          "logIndex": "0x258",
          "removed": false
        },
        {
          "address": "0x66b55b5daaa22e2023df596b061600a31ee3477d",
          "topics": [
            "0xddf252ad1be2c89b69c2b068fc378daa952ba7f163c4a11628f55a4df523b3ef",
            "0x0000000000000000000000007a250d5630b4cf539739df2c5dacb4c659f2488d",
            "0x0000000000000000000000005521e6dd81cb8820f44e9fb635d4099149bdc5ed"
          ],
          "data": "0x000000000000000000000000000000000000000140fd938c99dddd2f907c359d",
          "blockHash": "0xaa4c54bafa7d09241920ca1f422945f467a1de314b34588f18d7f8f5dcc0bd0f",
          "blockNumber": "0x13a2f9f",
          "transactionHash": "0x668c7945fce90c61e08f7d3e84e0bf1a9a70d62c5981cdeca7ffa67b7ae411c2",
          "transactionIndex": "0xcc",
          "logIndex": "0x259",
          "removed": false
        },
        {
          "address": "0xc02aaa39b223fe8d0a0e5c4f27ead9083c756cc2",
          "topics": [
            "0x7fcf532c15f0a6db0bd6d0e038bea71d30d808c7d98cb3bf7268a95bf5081b65",
            "0x0000000000000000000000007a250d5630b4cf539739df2c5dacb4c659f2488d"
          ],
          "data": "0x00000000000000000000000000000000000000000000000006fc299a0e48afff",
          "blockHash": "0xaa4c54bafa7d09241920ca1f422945f467a1de314b34588f18d7f8f5dcc0bd0f",
          "blockNumber": "0x13a2f9f",
          "transactionHash": "0x668c7945fce90c61e08f7d3e84e0bf1a9a70d62c5981cdeca7ffa67b7ae411c2",
          "transactionIndex": "0xcc",
          "logIndex": "0x25a",
          "removed": false
        }
      ],
      "logsBloom": "0x00000000000002000000000080000000010000000000000008010000000000000000000000000000000000000000000002000000080000000000000000000000000000000000000000000008000000000000000000400100000000000800000000000004020000000000010000000800000000004000040200000010000000000800000000000000004000000000080000000000000000080000000000000000000000000001004000000000000000000000000000000000000000000000000000000002000000000000000000000000000000000000001400000002000020000000200000000000000000000000000000000000080000000000000000000000",
      "type": "0x2",
      "transactionHash": "0x668c7945fce90c61e08f7d3e84e0bf1a9a70d62c5981cdeca7ffa67b7ae411c2",
      "transactionIndex": "0xcc",
      "blockHash": "0xaa4c54bafa7d09241920ca1f422945f467a1de314b34588f18d7f8f5dcc0bd0f",
      "blockNumber": "0x13a2f9f",
      "gasUsed": "0x2ebb2",
      "effectiveGasPrice": "0x37581286",
      "from": "0x5521e6dd81cb8820f44e9fb635d4099149bdc5ed",
      "to": "0x7a250d5630b4cf539739df2c5dacb4c659f2488d",
      "contractAddress": null
    },
    {
      "status": "0x1",
      "cumulativeGasUsed": "0xe9b17f",
      "logs": [],
      "logsBloom": "0x00000000000000000000000000000000000000000000000000000000000000000000000000000000000000000000000000000000000000000000000000000000000000000000000000000000000000000000000000000000000000000000000000000000000000000000000000000000000000000000000000000000000000000000000000000000000000000000000000000000000000000000000000000000000000000000000000000000000000000000000000000000000000000000000000000000000000000000000000000000000000000000000000000000000000000000000000000000000000000000000000000000000000000000000000000000",
      "type": "0x2",
      "transactionHash": "0xaa3402d662459040c65afc784b26cfe54dda9fb73bb0fd59626f291dc951d76b",
      "transactionIndex": "0x73",
      "blockHash": "0x39fc81382c987a1101aae069932836935ac0ddb5ac1a8e4790bd572d24eee5fc",
      "blockNumber": "0x13a2fa0",
      "gasUsed": "0x688e",
      "effectiveGasPrice": "0x3be1282d",
      "from": "0xeda0645e60860854f5564a34c5eaab28822bac5b",
      "to": "0xfeb4b5348c80418ac2fcc375837587c7ce0145d3",
      "contractAddress": null
    }
  ],
  "libraries": [],
  "pending": [],
  "returns": {},
  "timestamp": 1724406385,
  "chain": 1,
  "commit": "70cc6c5"
}