{
  "transactions": [
    {
      "hash": "0xe6067a3282c20503c9b395d73e2bb9a6a4d0a82a33dbd0dd3ea89c338eff4414",
      "transactionType": "CALL",
      "contractName": null,
      "contractAddress": "0x8033f47952f63983f478101612781a3083f52718",
      "function": "approve(address,uint256)",
      "arguments": [
        "0x7a250d5630B4cF539739dF2C5dAcb4c659F2488D",
        "115792089237316195423570985008687907853269984665640564039457584007913129639935"
      ],
      "transaction": {
        "from": "0x69c03cb2dbcc0d39320c4791d705d1e5c204d9a5",
        "to": "0x8033f47952f63983f478101612781a3083f52718",
        "gas": "0x108ff",
        "value": "0x0",
        "input": "0x095ea7b30000000000000000000000007a250d5630b4cf539739df2c5dacb4c659f2488dffffffffffffffffffffffffffffffffffffffffffffffffffffffffffffffff",
        "nonce": "0x12",
        "chainId": "0x1"
      },
      "additionalContracts": [],
      "isFixedGasLimit": false
    },
    {
      "hash": "0xb2caaf8610d17f965f939745e52b003af2a4fa555dfc2629a957a0873994f62f",
      "transactionType": "CALL",
      "contractName": null,
      "contractAddress": "0x7a250d5630b4cf539739df2c5dacb4c659f2488d",
      "function": "removeLiquidityETH(address,uint256,uint256,uint256,address,uint256)",
      "arguments": [
        "0xF258606419f9172015Be9e90A630c0041FA28946",
        "199999999999999999999000",
        "0",
        "0",
        "0x69C03cb2dbcC0D39320c4791D705D1E5c204d9a5",
        "1724095299"
      ],
      "transaction": {
        "from": "0x69c03cb2dbcc0d39320c4791d705d1e5c204d9a5",
        "to": "0x7a250d5630b4cf539739df2c5dacb4c659f2488d",
        "gas": "0x4b4be",
        "value": "0x0",
        "input": "0x02751cec000000000000000000000000f258606419f9172015be9e90a630c0041fa28946000000000000000000000000000000000000000000002a5a058fc295ecfffc180000000000000000000000000000000000000000000000000000000000000000000000000000000000000000000000000000000000000000000000000000000000000000000000000000000069c03cb2dbcc0d39320c4791d705d1e5c204d9a50000000000000000000000000000000000000000000000000000000066c39b43",
        "nonce": "0x13",
        "chainId": "0x1"
      },
      "additionalContracts": [],
      "isFixedGasLimit": false
    }
  ],
  "receipts": [
    {
      "status": "0x1",
      "cumulativeGasUsed": "0xbf5b15",
      "logs": [
        {
          "address": "0x8033f47952f63983f478101612781a3083f52718",
          "topics": [
            "0x8c5be1e5ebec7d5bd14f71427d1e84f3dd0314c0f7b2291e5b200ac8c7c3b925",
            "0x00000000000000000000000069c03cb2dbcc0d39320c4791d705d1e5c204d9a5",
            "0x0000000000000000000000007a250d5630b4cf539739df2c5dacb4c659f2488d"
          ],
          "data": "0xffffffffffffffffffffffffffffffffffffffffffffffffffffffffffffffff",
          "blockHash": "0xf32596e849fe5c2ca2507f26649ae6b7d6f73923ae117928d5b360a85050376d",
          "blockNumber": "0x139caf0",
          "transactionHash": "0xe6067a3282c20503c9b395d73e2bb9a6a4d0a82a33dbd0dd3ea89c338eff4414",
          "transactionIndex": "0x98",
          "logIndex": "0x14f",
          "removed": false
        }
      ],
      "logsBloom": "0x00000000000000080000000000000000000000000000000000010000000000000000000000000000000000000000000000000000000000000100000000200000000000000000000000000000000000000000000000000000000000000000000000000000000000000000000000000000000000000000000000000000000000000000000000000000004000000100000000000000000000000000002000000000020000000000000000000000000000000000000000000200000000000000000000000000000000000000000000001000000000000000000000000000000020000010000000000000000000000000000000000000000000000000000000000000",
      "type": "0x2",
      "transactionHash": "0xe6067a3282c20503c9b395d73e2bb9a6a4d0a82a33dbd0dd3ea89c338eff4414",
      "transactionIndex": "0x98",
      "blockHash": "0xf32596e849fe5c2ca2507f26649ae6b7d6f73923ae117928d5b360a85050376d",
      "blockNumber": "0x139caf0",
      "gasUsed": "0xb532",
      "effectiveGasPrice": "0x64d70d4b",
      "from": "0x69c03cb2dbcc0d39320c4791d705d1e5c204d9a5",
      "to": "0x8033f47952f63983f478101612781a3083f52718",
      "contractAddress": null
    },
    {
      "status": "0x1",
      "cumulativeGasUsed": "0xc2c34c",
      "logs": [
        {
          "address": "0x8033f47952f63983f478101612781a3083f52718",
          "topics": [
            "0xddf252ad1be2c89b69c2b068fc378daa952ba7f163c4a11628f55a4df523b3ef",
            "0x00000000000000000000000069c03cb2dbcc0d39320c4791d705d1e5c204d9a5",
            "0x0000000000000000000000008033f47952f63983f478101612781a3083f52718"
          ],
          "data": "0x000000000000000000000000000000000000000000002a5a058fc295ecfffc18",
          "blockHash": "0xf32596e849fe5c2ca2507f26649ae6b7d6f73923ae117928d5b360a85050376d",
          "blockNumber": "0x139caf0",
          "transactionHash": "0xb2caaf8610d17f965f939745e52b003af2a4fa555dfc2629a957a0873994f62f",
          "transactionIndex": "0x99",
          "logIndex": "0x150",
          "removed": false
        },
        {
          "address": "0x8033f47952f63983f478101612781a3083f52718",
          "topics": [
            "0xddf252ad1be2c89b69c2b068fc378daa952ba7f163c4a11628f55a4df523b3ef",
            "0x0000000000000000000000008033f47952f63983f478101612781a3083f52718",
            "0x0000000000000000000000000000000000000000000000000000000000000000"
          ],
          "data": "0x000000000000000000000000000000000000000000002a5a058fc295ecfffc18",
          "blockHash": "0xf32596e849fe5c2ca2507f26649ae6b7d6f73923ae117928d5b360a85050376d",
          "blockNumber": "0x139caf0",
          "transactionHash": "0xb2caaf8610d17f965f939745e52b003af2a4fa555dfc2629a957a0873994f62f",
          "transactionIndex": "0x99",
          "logIndex": "0x151",
          "removed": false
        },
        {
          "address": "0xc02aaa39b223fe8d0a0e5c4f27ead9083c756cc2",
          "topics": [
            "0xddf252ad1be2c89b69c2b068fc378daa952ba7f163c4a11628f55a4df523b3ef",
            "0x0000000000000000000000008033f47952f63983f478101612781a3083f52718",
            "0x0000000000000000000000007a250d5630b4cf539739df2c5dacb4c659f2488d"
          ],
          "data": "0x000000000000000000000000000000000000000000000000058d31703ae497ff",
          "blockHash": "0xf32596e849fe5c2ca2507f26649ae6b7d6f73923ae117928d5b360a85050376d",
          "blockNumber": "0x139caf0",
          "transactionHash": "0xb2caaf8610d17f965f939745e52b003af2a4fa555dfc2629a957a0873994f62f",
          "transactionIndex": "0x99",
          "logIndex": "0x152",
          "removed": false
        },
        {
          "address": "0xf258606419f9172015be9e90a630c0041fa28946",
          "topics": [
            "0xddf252ad1be2c89b69c2b068fc378daa952ba7f163c4a11628f55a4df523b3ef",
            "0x0000000000000000000000008033f47952f63983f478101612781a3083f52718",
            "0x0000000000000000000000007a250d5630b4cf539739df2c5dacb4c659f2488d"
          ],
          "data": "0x00000000000000000000000000000000000000014317d08bb262c002b4aeba7f",
          "blockHash": "0xf32596e849fe5c2ca2507f26649ae6b7d6f73923ae117928d5b360a85050376d",
          "blockNumber": "0x139caf0",
          "transactionHash": "0xb2caaf8610d17f965f939745e52b003af2a4fa555dfc2629a957a0873994f62f",
          "transactionIndex": "0x99",
          "logIndex": "0x153",
          "removed": false
        },
        {
          "address": "0x8033f47952f63983f478101612781a3083f52718",
          "topics": [
            "0x1c411e9a96e071241c2f21f7726b17ae89e3cab4c78be50e062b03a9fffbbad1"
          ],
          "data": "0x0000000000000000000000000000000000000000000000000000000000000001000000000000000000000000000000000000000000000000000000001dccd182",
          "blockHash": "0xf32596e849fe5c2ca2507f26649ae6b7d6f73923ae117928d5b360a85050376d",
          "blockNumber": "0x139caf0",
          "transactionHash": "0xb2caaf8610d17f965f939745e52b003af2a4fa555dfc2629a957a0873994f62f",
          "transactionIndex": "0x99",
          "logIndex": "0x154",
          "removed": false
        },
        {
          "address": "0x8033f47952f63983f478101612781a3083f52718",
          "topics": [
            "0xdccd412f0b1252819cb1fd330b93224ca42612892bb3f4f789976e6d81936496",
            "0x0000000000000000000000007a250d5630b4cf539739df2c5dacb4c659f2488d",
            "0x0000000000000000000000007a250d5630b4cf539739df2c5dacb4c659f2488d"
          ],
          "data": "0x000000000000000000000000000000000000000000000000058d31703ae497ff00000000000000000000000000000000000000014317d08bb262c002b4aeba7f",
          "blockHash": "0xf32596e849fe5c2ca2507f26649ae6b7d6f73923ae117928d5b360a85050376d",
          "blockNumber": "0x139caf0",
          "transactionHash": "0xb2caaf8610d17f965f939745e52b003af2a4fa555dfc2629a957a0873994f62f",
          "transactionIndex": "0x99",
          "logIndex": "0x155",
          "removed": false
        },
        {
          "address": "0xf258606419f9172015be9e90a630c0041fa28946",
          "topics": [
            "0xddf252ad1be2c89b69c2b068fc378daa952ba7f163c4a11628f55a4df523b3ef",
            "0x0000000000000000000000007a250d5630b4cf539739df2c5dacb4c659f2488d",
            "0x00000000000000000000000069c03cb2dbcc0d39320c4791d705d1e5c204d9a5"
          ],
          "data": "0x00000000000000000000000000000000000000014317d08bb262c002b4aeba7f",
          "blockHash": "0xf32596e849fe5c2ca2507f26649ae6b7d6f73923ae117928d5b360a85050376d",
          "blockNumber": "0x139caf0",
          "transactionHash": "0xb2caaf8610d17f965f939745e52b003af2a4fa555dfc2629a957a0873994f62f",
          "transactionIndex": "0x99",
          "logIndex": "0x156",
          "removed": false
        },
        {
          "address": "0xc02aaa39b223fe8d0a0e5c4f27ead9083c756cc2",
          "topics": [
            "0x7fcf532c15f0a6db0bd6d0e038bea71d30d808c7d98cb3bf7268a95bf5081b65",
            "0x0000000000000000000000007a250d5630b4cf539739df2c5dacb4c659f2488d"
          ],
          "data": "0x000000000000000000000000000000000000000000000000058d31703ae497ff",
          "blockHash": "0xf32596e849fe5c2ca2507f26649ae6b7d6f73923ae117928d5b360a85050376d",
          "blockNumber": "0x139caf0",
          "transactionHash": "0xb2caaf8610d17f965f939745e52b003af2a4fa555dfc2629a957a0873994f62f",
          "transactionIndex": "0x99",
          "logIndex": "0x157",
          "removed": false
        }
      ],
      "logsBloom": "0x00000000000000080000000080000000000000000002000000010000000000000000000000000000000000000000000002000000080000000100000000000000000000000000000000000008000000000000200000400000000000000000000000000004024000000000000000000800000000000000040000000010000000000000000000000000004000000100080000000000000000080000002000000001000000000000004000200000000000000000000000000200000000000000000000000002000000000000000000001000000000000000001000000002000020040000200000000000000000000000000000000000000000000000000000000000",
      "type": "0x2",
      "transactionHash": "0xb2caaf8610d17f965f939745e52b003af2a4fa555dfc2629a957a0873994f62f",
      "transactionIndex": "0x99",
      "blockHash": "0xf32596e849fe5c2ca2507f26649ae6b7d6f73923ae117928d5b360a85050376d",
      "blockNumber": "0x139caf0",
      "gasUsed": "0x36837",
      "effectiveGasPrice": "0x64d70d4b",
      "from": "0x69c03cb2dbcc0d39320c4791d705d1e5c204d9a5",
      "to": "0x7a250d5630b4cf539739df2c5dacb4c659f2488d",
      "contractAddress": null
    }
  ],
  "libraries": [],
  "pending": [],
  "returns": {},
  "timestamp": 1724095231,
  "chain": 1,
  "commit": "406bfa2"
}