{
  "transactions": [
    {
      "hash": "0xc1ead1dcd4542af101512d2e545f34a8a49f200f38e42b62334bd490f5a63505",
      "transactionType": "CALL",
      "contractName": null,
      "contractAddress": "0x96a61229e35e23b906f97a6987b66e9043b9144b",
      "function": "approve(address,uint256)",
      "arguments": [
        "0x7a250d5630B4cF539739dF2C5dAcb4c659F2488D",
        "115792089237316195423570985008687907853269984665640564039457584007913129639935"
      ],
      "transaction": {
        "from": "0x69c03cb2dbcc0d39320c4791d705d1e5c204d9a5",
        "to": "0x96a61229e35e23b906f97a6987b66e9043b9144b",
        "gas": "0x108ff",
        "value": "0x0",
        "input": "0x095ea7b30000000000000000000000007a250d5630b4cf539739df2c5dacb4c659f2488dffffffffffffffffffffffffffffffffffffffffffffffffffffffffffffffff",
        "nonce": "0x3",
        "chainId": "0x1"
      },
      "additionalContracts": [],
      "isFixedGasLimit": false
    },
    {
      "hash": "0x0f702feba72523578dc7a6a9e734e4c81bf13bb90d2a64e296eef9a433df3bb8",
      "transactionType": "CALL",
      "contractName": null,
      "contractAddress": "0x7a250d5630b4cf539739df2c5dacb4c659f2488d",
      "function": "removeLiquidityETH(address,uint256,uint256,uint256,address,uint256)",
      "arguments": [
        "0x5B0926CBC3139921C6Ce5FCFF173d03eBD0949A7",
        "199999999999999999999000",
        "0",
        "0",
        "0x69C03cb2dbcC0D39320c4791D705D1E5c204d9a5",
        "1724073723"
      ],
      "transaction": {
        "from": "0x69c03cb2dbcc0d39320c4791d705d1e5c204d9a5",
        "to": "0x7a250d5630b4cf539739df2c5dacb4c659f2488d",
        "gas": "0x4b49c",
        "value": "0x0",
        "input": "0x02751cec0000000000000000000000005b0926cbc3139921c6ce5fcff173d03ebd0949a7000000000000000000000000000000000000000000002a5a058fc295ecfffc180000000000000000000000000000000000000000000000000000000000000000000000000000000000000000000000000000000000000000000000000000000000000000000000000000000069c03cb2dbcc0d39320c4791d705d1e5c204d9a50000000000000000000000000000000000000000000000000000000066c346fb",
        "nonce": "0x4",
        "chainId": "0x1"
      },
      "additionalContracts": [],
      "isFixedGasLimit": false
    }
  ],
  "receipts": [
    {
      "status": "0x1",
      "cumulativeGasUsed": "0x14eafc8",
      "logs": [
        {
          "address": "0x96a61229e35e23b906f97a6987b66e9043b9144b",
          "topics": [
            "0x8c5be1e5ebec7d5bd14f71427d1e84f3dd0314c0f7b2291e5b200ac8c7c3b925",
            "0x00000000000000000000000069c03cb2dbcc0d39320c4791d705d1e5c204d9a5",
            "0x0000000000000000000000007a250d5630b4cf539739df2c5dacb4c659f2488d"
          ],
          "data": "0xffffffffffffffffffffffffffffffffffffffffffffffffffffffffffffffff",
          "blockHash": "0xf8fac01d9985672213f4b4de770fa32019758495cc2f61e228b68f7c7c1030e0",
          "blockNumber": "0x139c3f8",
          "transactionHash": "0xc1ead1dcd4542af101512d2e545f34a8a49f200f38e42b62334bd490f5a63505",
          "transactionIndex": "0x10c",
          "logIndex": "0x232",
          "removed": false
        }
      ],
      "logsBloom": "0x000000000000000800000000000000000000000000000000000100000000000000000000000000000000000000100000000000000000000001000000002000000000000000000000000000000000800000000000000000000000000000000000000000000000000000000000000000000000000000000000000000000000000000000000000000000040000000000000000000000000000000000000000000000200000000000000000000000000000000000000000000000000000000000000000000000000000000000000000010000000000000000000000000000000a0000010000000000000000000000000000000000000000000000000000000000000",
      "type": "0x2",
      "transactionHash": "0xc1ead1dcd4542af101512d2e545f34a8a49f200f38e42b62334bd490f5a63505",
      "transactionIndex": "0x10c",
      "blockHash": "0xf8fac01d9985672213f4b4de770fa32019758495cc2f61e228b68f7c7c1030e0",
      "blockNumber": "0x139c3f8",
      "gasUsed": "0xb532",
      "effectiveGasPrice": "0xbf331bcb",
      "from": "0x69c03cb2dbcc0d39320c4791d705d1e5c204d9a5",
      "to": "0x96a61229e35e23b906f97a6987b66e9043b9144b",
      "contractAddress": null
    },
    {
      "status": "0x1",
      "cumulativeGasUsed": "0x15217e7",
      "logs": [
        {
          "address": "0x96a61229e35e23b906f97a6987b66e9043b9144b",
          "topics": [
            "0xddf252ad1be2c89b69c2b068fc378daa952ba7f163c4a11628f55a4df523b3ef",
            "0x00000000000000000000000069c03cb2dbcc0d39320c4791d705d1e5c204d9a5",
            "0x00000000000000000000000096a61229e35e23b906f97a6987b66e9043b9144b"
          ],
          "data": "0x000000000000000000000000000000000000000000002a5a058fc295ecfffc18",
          "blockHash": "0xf8fac01d9985672213f4b4de770fa32019758495cc2f61e228b68f7c7c1030e0",
          "blockNumber": "0x139c3f8",
          "transactionHash": "0x0f702feba72523578dc7a6a9e734e4c81bf13bb90d2a64e296eef9a433df3bb8",
          "transactionIndex": "0x10d",
          "logIndex": "0x233",
          "removed": false
        },
        {
          "address": "0x96a61229e35e23b906f97a6987b66e9043b9144b",
          "topics": [
            "0xddf252ad1be2c89b69c2b068fc378daa952ba7f163c4a11628f55a4df523b3ef",
            "0x00000000000000000000000096a61229e35e23b906f97a6987b66e9043b9144b",
            "0x0000000000000000000000000000000000000000000000000000000000000000"
          ],
          "data": "0x000000000000000000000000000000000000000000002a5a058fc295ecfffc18",
          "blockHash": "0xf8fac01d9985672213f4b4de770fa32019758495cc2f61e228b68f7c7c1030e0",
          "blockNumber": "0x139c3f8",
          "transactionHash": "0x0f702feba72523578dc7a6a9e734e4c81bf13bb90d2a64e296eef9a433df3bb8",
          "transactionIndex": "0x10d",
          "logIndex": "0x234",
          "removed": false
        },
        {
          "address": "0x5b0926cbc3139921c6ce5fcff173d03ebd0949a7",
          "topics": [
            "0xddf252ad1be2c89b69c2b068fc378daa952ba7f163c4a11628f55a4df523b3ef",
            "0x00000000000000000000000096a61229e35e23b906f97a6987b66e9043b9144b",
            "0x0000000000000000000000007a250d5630b4cf539739df2c5dacb4c659f2488d"
          ],
          "data": "0x00000000000000000000000000000000000000014317ff8378a133ebc9c76fcc",
          "blockHash": "0xf8fac01d9985672213f4b4de770fa32019758495cc2f61e228b68f7c7c1030e0",
          "blockNumber": "0x139c3f8",
          "transactionHash": "0x0f702feba72523578dc7a6a9e734e4c81bf13bb90d2a64e296eef9a433df3bb8",
          "transactionIndex": "0x10d",
          "logIndex": "0x235",
          "removed": false
        },
        {
          "address": "0xc02aaa39b223fe8d0a0e5c4f27ead9083c756cc2",
          "topics": [
            "0xddf252ad1be2c89b69c2b068fc378daa952ba7f163c4a11628f55a4df523b3ef",
            "0x00000000000000000000000096a61229e35e23b906f97a6987b66e9043b9144b",
            "0x0000000000000000000000007a250d5630b4cf539739df2c5dacb4c659f2488d"
          ],
          "data": "0x000000000000000000000000000000000000000000000000058d30a102c253ff",
          "blockHash": "0xf8fac01d9985672213f4b4de770fa32019758495cc2f61e228b68f7c7c1030e0",
          "blockNumber": "0x139c3f8",
          "transactionHash": "0x0f702feba72523578dc7a6a9e734e4c81bf13bb90d2a64e296eef9a433df3bb8",
          "transactionIndex": "0x10d",
          "logIndex": "0x236",
          "removed": false
        },
        {
          "address": "0x96a61229e35e23b906f97a6987b66e9043b9144b",
          "topics": [
            "0x1c411e9a96e071241c2f21f7726b17ae89e3cab4c78be50e062b03a9fffbbad1"
          ],
          "data": "0x000000000000000000000000000000000000000000000000000000001dccd5d70000000000000000000000000000000000000000000000000000000000000001",
          "blockHash": "0xf8fac01d9985672213f4b4de770fa32019758495cc2f61e228b68f7c7c1030e0",
          "blockNumber": "0x139c3f8",
          "transactionHash": "0x0f702feba72523578dc7a6a9e734e4c81bf13bb90d2a64e296eef9a433df3bb8",
          "transactionIndex": "0x10d",
          "logIndex": "0x237",
          "removed": false
        },
        {
          "address": "0x96a61229e35e23b906f97a6987b66e9043b9144b",
          "topics": [
            "0xdccd412f0b1252819cb1fd330b93224ca42612892bb3f4f789976e6d81936496",
            "0x0000000000000000000000007a250d5630b4cf539739df2c5dacb4c659f2488d",
            "0x0000000000000000000000007a250d5630b4cf539739df2c5dacb4c659f2488d"
          ],
          "data": "0x00000000000000000000000000000000000000014317ff8378a133ebc9c76fcc000000000000000000000000000000000000000000000000058d30a102c253ff",
          "blockHash": "0xf8fac01d9985672213f4b4de770fa32019758495cc2f61e228b68f7c7c1030e0",
          "blockNumber": "0x139c3f8",
          "transactionHash": "0x0f702feba72523578dc7a6a9e734e4c81bf13bb90d2a64e296eef9a433df3bb8",
          "transactionIndex": "0x10d",
          "logIndex": "0x238",
          "removed": false
        },
        {
          "address": "0x5b0926cbc3139921c6ce5fcff173d03ebd0949a7",
          "topics": [
            "0xddf252ad1be2c89b69c2b068fc378daa952ba7f163c4a11628f55a4df523b3ef",
            "0x0000000000000000000000007a250d5630b4cf539739df2c5dacb4c659f2488d",
            "0x00000000000000000000000069c03cb2dbcc0d39320c4791d705d1e5c204d9a5"
          ],
          "data": "0x00000000000000000000000000000000000000014317ff8378a133ebc9c76fcc",
          "blockHash": "0xf8fac01d9985672213f4b4de770fa32019758495cc2f61e228b68f7c7c1030e0",
          "blockNumber": "0x139c3f8",
          "transactionHash": "0x0f702feba72523578dc7a6a9e734e4c81bf13bb90d2a64e296eef9a433df3bb8",
          "transactionIndex": "0x10d",
          "logIndex": "0x239",
          "removed": false
        },
        {
          "address": "0xc02aaa39b223fe8d0a0e5c4f27ead9083c756cc2",
          "topics": [
            "0x7fcf532c15f0a6db0bd6d0e038bea71d30d808c7d98cb3bf7268a95bf5081b65",
            "0x0000000000000000000000007a250d5630b4cf539739df2c5dacb4c659f2488d"
          ],
          "data": "0x000000000000000000000000000000000000000000000000058d30a102c253ff",
          "blockHash": "0xf8fac01d9985672213f4b4de770fa32019758495cc2f61e228b68f7c7c1030e0",
          "blockNumber": "0x139c3f8",
          "transactionHash": "0x0f702feba72523578dc7a6a9e734e4c81bf13bb90d2a64e296eef9a433df3bb8",
          "transactionIndex": "0x10d",
          "logIndex": "0x23a",
          "removed": false
        }
      ],
      "logsBloom": "0x000008000000000800000000800000000000000000000000000100000000000800000000000000000000000000100400020000000800000001000000000000000000000000000000000000080008800000000000004000000000000000000000000000040200000000000000000008000000000000000400000000100000000000000000000000000040000000000800000000000000000800000000000000000000000000000040000000000000000000000000000000000000000000000000000000020000000000000000000010000000000000000010000000020000a0000000200000000010000000000000000000000000000000000000000400000000",
      "type": "0x2",
      "transactionHash": "0x0f702feba72523578dc7a6a9e734e4c81bf13bb90d2a64e296eef9a433df3bb8",
      "transactionIndex": "0x10d",
      "blockHash": "0xf8fac01d9985672213f4b4de770fa32019758495cc2f61e228b68f7c7c1030e0",
      "blockNumber": "0x139c3f8",
      "gasUsed": "0x3681f",
      "effectiveGasPrice": "0xbf331bcb",
      "from": "0x69c03cb2dbcc0d39320c4791d705d1e5c204d9a5",
      "to": "0x7a250d5630b4cf539739df2c5dacb4c659f2488d",
      "contractAddress": null
    }
  ],
  "libraries": [],
  "pending": [],
  "returns": {},
  "timestamp": 1724073675,
  "chain": 1,
  "commit": "406bfa2"
}